:100000000000CB01230223032B03A303AB03120441
:100010003408560C78109A14BC18DE1CF0221227F3
:10002000342B562F02311443265538674A79008104
:10003000158128833E8344915591669177918F91E4
:100040009F93A191B29129913A914C915D916E91BA
:100050001192229239924A925C926D927E92809095
:100060003412909234123894B894A094B194C294FB
:10007000D394E594F69407951A9508948894099476
:1000800008950995189588959895A8950C946200FF
:100090000E946200C895D895E895019612979398AA
:1000A0009C99A59AAE9B239F46B357BB0AC009D023
:1000B0006AEA38F030F429F021F471F982FB93FDFB
:0600C000A4FF0000000097
:00000001FF
